:020000040800F2
:1000000000050020410300084501000847010008E1
:100010004B0100084F0100085301000800000000D8
:100020000000000000000000000000005701000870
:1000300059010008000000005B0100085D01000894
:100040005B0300085B0300085B0300085B03000818
:100050005B0300085B0300085B0300085B03000808
:100060005B0300085B0300085B0300085B030008F8
:100070005B0300085B0300085B0300085B030008E8
:100080005B0300085B0300085B0300085B030008D8
:100090005B0300085B0300085B0300085B030008C8
:1000A0005B0300085B0300085B0300085B030008B8
:1000B0005B0300085B0300085B030008E31900080A
:1000C000531A00085B0300085B0300082F1C00089C
:1000D0005B0300085B0300085B0300085B03000888
:1000E0005B0300085B0300085B0300085B03000878
:1000F0005B0300085B0300085B0300085B03000868
:100100005B0300085B0300085B0300085B03000857
:100110005B0300085B0300085B0300085B03000847
:100120005B0300085B0300085B0300085B03000837
:10013000DFF80CD001F0F8FD004800479D1D0008D5
:1001400000050020704700BFFEE700BFFEE700BFCC
:10015000FEE700BFFEE7704770477047704700003A
:100160000CB50020019000906C48006840F480308D
:100170006A49086000BF6948006800F400300090D8
:100180000198401C0190009818B90198B0F5A06F33
:10019000F1D16248006800F4003010B101200090F5
:1001A00001E0002000900098012843D15C480068DD
:1001B00040F010005A4908600846006820F003002B
:1001C00008600846006840F0020008605348406834
:1001D000524948600846406848600846406840F414
:1001E000806048600846406820F47C1048600846FB
:1001F000406840F4E81048600846006840F08070AD
:10020000086000BF4548006800F000700028F9D081
:100210004248406820F00300404948600846406872
:1002200040F00200486000BF3C48406800F00C000D
:100230000828F9D10CBD10B5FFF792FF10BD10B51D
:100240003648006840F001003449086008464068BC
:10025000344908403149486008460068324908403E
:100260002E4908600846006820F48020086008468F
:10027000406820F4FE0048604FF41F008860FFF7DC
:10028000DAFF4FF000602949086010BD10B5002169
:1002900000200022214B5B6803F00C0121B10429EE
:1002A00006D0082928D107E0214B224C236027E003
:1002B0001F4B204C236023E0184B5B6803F4701045
:1002C000164B5B6803F48032022303EB904022B9A3
:1002D000194B4343174C23600DE0104B5B6803F44C
:1002E000003323B1144B4343124C236003E0104B03
:1002F0004343104C236003E00D4B0E4C236000BFC2
:1003000000BF064B5B68C3F303130C4CE15C094B65
:100310001B68CB40074C236010BD0000001002405A
:10032000002002400000FFF8FFFFF6FE08ED00E0AD
:1003300000127A000000002000093D0004000020A7
:100340000648804706480047FEE7FEE7FEE7FEE76F
:10035000FEE7FEE7FEE7FEE7FEE7FEE73F020008F6
:100360003101000831490143314A1160704770B5CD
:10037000002100230F22C47804B32D4C246804F418
:10038000E064C4F5E064210AC1F10403CA40447882
:1003900004FA03F18478144021430901254C0678BE
:1003A000A155047804F01F050124AC4005786D11B7
:1003B000AD0005F1E025C5F8004109E0047804F03E
:1003C0001F050124AC401C4D0678761145F82640E7
:1003D00070BD1A4A0A400243154B1B1F1A60704732
:1003E00039B1134A121D12680243114B1B1D1A60CA
:1003F00006E00F4A121D126882430D4B1B1D1A6046
:100400007047042808D14FF0E021096941F0040148
:100410004FF0E022116107E04FF0E021096921F07F
:1004200004014FF0E0221161704700000000FA055E
:100430000CED00E000E400E080E100E080FFFF1F41
:1004400001684FF6FE7211400160002101604160B9
:100450008160C1608D49884208D18C49083949685A
:1004600041F00F01894A083A51608AE08749143106
:10047000884208D185490839496841F0F001834A2A
:10048000083A51607DE081492831884208D17F498E
:100490000839496841F470617C4A083A516070E05B
:1004A0007A493C31884208D178490839496841F491
:1004B0007041764A083A516063E07449503188428D
:1004C00008D172490839496841F470216F4A083AE5
:1004D000516056E06D496431884208D16B49083952
:1004E000496841F47001694A083A516049E0674936
:1004F0007831884208D165490839496841F070610E
:10050000624A083A51603CE06149884206D1011FC5
:10051000096841F00F01021F116032E05C4914319B
:10052000884208D15A49091F096841F0F001584A28
:10053000121F116025E056492831884208D15449DC
:10054000091F096841F47061514A121F116018E0D7
:100550004F493C31884208D14D49091F096841F48F
:1005600070414B4A121F11600BE0494950318842DB
:1005700007D14749091F096841F47021444A121FF5
:100580001160704710B50022026847F6F0739A4375
:100590000C6A8B6823430C6923434C6923438C69A1
:1005A0002343CC6923434C6A23438C6A23431A4375
:1005B0000260CB6843600B6883604B68C36010BD0A
:1005C0000021016041608160C16001614161816120
:1005D000C161016241628162704721B1026842F0EB
:1005E0000102026004E002684FF6FE731A400260E6
:1005F00070471AB103680B43036002E003688B4342
:1006000003607047416070470146486880B2704798
:1006100001460020002201F080531BB11C4B083B17
:100620001A6802E0194B083B1A6802EA01030BB191
:10063000012000E00020704700F0805119B11449FA
:10064000091F086002E011490839486070470146F7
:100650000020002201F080531BB10D4B083B1A68AB
:1006600002E00A4B083B1A6802EA01030BB10120C1
:1006700000E00020704700F0805119B10449091FC3
:10068000086002E0014908394860704708000240EC
:100690000804024010B50446CC48844208D1012128
:1006A000042000F02FFD0021042000F02BFD46E087
:1006B000C748844208D10121082000F023FD002111
:1006C000082000F01FFD3AE0C248844208D1012111
:1006D000102000F017FD0021102000F013FD2EE087
:1006E000BD48844208D10121202000F00BFD0021EB
:1006F000202000F007FD22E0B848844208D1012103
:10070000402000F0FFFC0021402000F0FBFC16E040
:10071000B348844208D10121802000F0F3FC00217D
:10072000802000F0EFFC0AE0AE48844207D10121AE
:10073000801500F0E7FC0021A01500F0E3FC10BDDF
:1007400010B50121084600F0DDFC0021012000F079
:10075000D9FC10BD2DE9F0410246002500260020FD
:1007600000230024002791F803C00CF00F0591F836
:1007700003C00CF0100CBCF1000F03D091F802C0C4
:100780004CEA050591F800C0BCF1000F31D01468A7
:1007900000202BE04FF0010C0CFA00F3B1F800C080
:1007A0000CEA03069E4220D183004FF00F0C0CFA96
:1007B00003F7BC4305FA03FC4CEA040491F803C0B8
:1007C000BCF1280F06D14FF0010C0CFA00FCC2F866
:1007D00014C00AE091F803C0BCF1480F05D14FF0F6
:1007E000010C0CFA00FCC2F810C0401C0828D1D340
:1007F0001460B1F800C0BCF1FF0F34DD5468002074
:100800002EE000F1080C4FF0010808FA0CF3B1F8E3
:1008100000C00CEA03069E4221D183004FF00F0C6A
:100820000CFA03F7BC4305FA03FC4CEA040491F804
:1008300003C0BCF1280F05D100F1080C08FA0CF830
:10084000C2F8148091F803C0BCF1480F07D100F141
:10085000080C4FF0010808FA0CF8C2F81080401C90
:100860000828CED35460BDE8F0814FF6FF710180B7
:10087000022181700421C1707047024600209368F4
:100880000B400BB1012000E0002070470146886852
:1008900080B2704702460020D3680B400BB10120A4
:1008A00000E0002070470146C86880B270470161CF
:1008B0007047416170470AB1016100E041617047D2
:1008C000C16070474FF480320A4382618161826166
:1008D00082698269704702460020434B18684FF6D0
:1008E0008073184040EA021008433F4B186070477D
:1008F0003E49C8617047F0B50A4600230024002134
:10090000002500F00046B6F1004F02D1364EF169E5
:1009100001E0354E7168C0F3034583B200F4401620
:10092000B6F5401F08D121F070612F4E766826F091
:1009300070662D4F7E6012E000F48016B6F5801FC1
:1009400006D1032606FA05F4A14341F0706106E0E2
:10095000460D360103FA06F6B14341F0706122B14B
:10096000460D360103FA06F6314300F00046B6F1B3
:10097000004F02D11C4EF16101E01B4E7160F0BDD1
:1009800030B500228B071C0F0F2303FA04F2164B1D
:1009900008338C1053F824309343134C08348D10D3
:1009A00044F8253023468C1053F824308C07240F4C
:1009B00000FA04F423430C4C08348D1044F825301D
:1009C00030BD0A49DC310860704700000008014072
:1009D000000C0140001001400014014000180140CB
:1009E000001C0140002001400000014000002042A6
:1009F00010B50446F748844209D10121480500F0AA
:100A00008EFB00214FF4001000F089FB08E001216B
:100A1000880500F084FB00214FF4800000F07FFB8C
:100A200010BD2DE9F04385B004460D460026B146C1
:100A30000427DFF8A483A6884FF6C07006406846F6
:100A400000F0D9FADDF80880E448B8FBF0F01FFAAE
:100A500080F946EA0906A68020884FF6FE71084014
:100A600020800026DE49286888420CD8286840008B
:100A7000B8FBF0F087B2042F00DA04273E4309F1F7
:100A80000100208427E0E8884BF6FF71884206D1F8
:100A9000286800EB4000B8FBF0F087B209E0286856
:100AA00000EBC00101EB0010B8FBF0F087B247F497
:100AB0008047C7F30B0008B947F0010747F400402F
:100AC00006434FF4967009FB00F04FF47A7190FBE7
:100AD000F1F0401C2084A683208840F00100208093
:100AE00026884FF6F5300640A888698908430643F2
:100AF0002680A88929890843208105B0BDE8F083B4
:100B000041F288310160002181804BF6FF71C18084
:100B10000021018141814FF480418181704721B1E1
:100B2000028842F00102028004E002884FF6FE7360
:100B30001A400280704721B1828842F400628280AC
:100B400004E082884FF2FF731A408280704721B11F
:100B5000828842F48052828004E082884EF6FF73DD
:100B60001A408280704721B1028842F4807202806C
:100B700004E002884FF6FF631A400280704721B1FB
:100B8000028842F40072028004E002884FF6FF53AC
:100B90001A400280704721B1028842F480620280CC
:100BA00004E002884FF6FF331A40028070470A467D
:100BB000002181894FF60173194002F0FE031943A9
:100BC0008181704721B1828942F00102828104E073
:100BD00082894FF6FE731A408281704721B10288E4
:100BE00042F04002028004E002884FF6BF731A40D0
:100BF000028070471AB183880B43838002E08388A8
:100C00008B4383807047018270470146088AC0B2D7
:100C1000704712B141F0010102E04FF6FE73194036
:100C20000182704708B502460020009000920098AB
:100C3000084400900098008808BD21B1028842F461
:100C40000042028003E00288C2F30E020280704775
:100C5000B1F5006F04D1028842F40062028004E022
:100C600002884FF2FF731A4002807047B1F5005FAF
:100C700004D1028842F40052028004E002884DF65A
:100C8000FF731A400280704721B1028842F48052FB
:100C9000028004E002884EF6FF731A40028070471B
:100CA000B1F5006F04D1028842F40062028004E0D2
:100CB00002884FF2FF731A400280704721B1028808
:100CC00042F02002028004E002884FF6DF731A40EF
:100CD000028070470146088B0012704721B10288DC
:100CE00042F01002028004E002884FF6EF731A40CF
:100CF0000280704721B9028842F08002028004E03D
:100D000002884FF67F731A4002807047B1F5804F1A
:100D100005D0828B4BF6FF731A40828303E0828BEF
:100D200042F480428283704770B502460024002559
:100D300000230020958A138B1B0445EA030626F046
:100D40007F4404EA01068E4201D1012000E0002028
:100D500070BD10B501460020002300228B8A0A8B4B
:100D6000120443EA020424F07F4010BD0CB5024691
:100D7000002000230193009300920B0F019321F0B8
:100D80007F41019B1BB1009B1433009303E0090CCE
:100D9000009B18330093009B1B680B400BB1012094
:100DA00000E000200CBD002221F07F42D34383826B
:100DB000704730B5024600200023948801F0E065BA
:100DC00004EA154321F07F41948A0C4054B14BB1A1
:100DD000012008E00054004000127A0040420F0059
:100DE000A0860100002030BD002221F07F42D343C5
:100DF00083827047DF48006840F00100DD490860E9
:100E000008464068DC490840DA49486008460068FE
:100E1000DA490840D74908600846006820F4802075
:100E200008600846406820F4FE0048604FF41F0048
:100E300088607047CF49096821F48031CD4A11603C
:100E40001146096821F480211160B0F5803F03D07C
:100E5000B0F5802F0ED106E0C649096841F4803113
:100E6000C44A116007E0C349096841F4A021C14A9E
:100E7000116000E000BF00BF704710B501460022BE
:100E8000002300204A11012A02D1BA4C236806E04F
:100E9000022A02D1B74C236A01E0B64C636A01F022
:100EA0001F02012494401C400CB1012000E00020EE
:100EB00010BD38B5002000900024002500BF31206F
:100EC000FFF7DBFF05460098401C00900098B0F546
:100ED000A06F01D0002DF2D03120FFF7CEFF08B176
:100EE000012400E00024204638BD01460020A14A2C
:100EF000106820F0F80040EAC10010607047A04977
:100F000008607047024600209A4B586820F47C1015
:100F100042EA01031843974B5860704798490866A6
:100F2000704701460020934A506820F003000843B0
:100F3000506070478F48406800F00C0070470146D1
:100F400000208C4A506820F0F00008435060704741
:100F500001460020874A506820F4E0600843506052
:100F6000704701460020834A506820F4605040EAF0
:100F7000C1005060704729B17E4A527A02437D4BCE
:100F80005A7204E07B4A527A82437A4B5A72704713
:100F90007B49D8310860704701460020754A506887
:100FA00020F440400843506070470021714A2032CD
:100FB0001170704A82F82010012802D004280AD14A
:100FC00004E001216B4A2032117005E00521694AD5
:100FD0002032117000E000BF00BF7047694908600F
:100FE00070476449096A0143624A11627047654962
:100FF00044390860704730B50021002200240023E6
:101000005C4D6D6805F00C0121B1042905D008295B
:1010100023D105E05C4D056022E05B4D05601FE0DB
:10102000544D6D6805F47012524D6D6805F48034AE
:10103000022505EB92421CB9544D554305600BE067
:101040004C4D6D6805F400351DB1504D554305609C
:1010500002E04D4D5543056002E04B4D056000BF79
:1010600000BF444D6D6805F0F0010909484D6B5C07
:101070000568DD4045603F4D6D6805F4E061090A93
:10108000434D6B5C4568DD4085603A4D6D6805F405
:101090006051C90A3E4D6B5C4568DD40C560354D09
:1010A0006D6805F44041890B3A4D6B5CC568B5FB32
:1010B000F3F5056130BD29B12E4A526902432D4B2B
:1010C0005A6104E02B4A526982432A4B5A617047A5
:1010D00029B1284A92690243264B9A6104E0254AC5
:1010E00092698243234B9A61704729B1214AD269A0
:1010F0000243204BDA6104E01E4AD26982431D4B51
:10110000DA61704729B11B4AD2680243194BDA6091
:1011100004E0184AD2688243164BDA60704729B15E
:10112000144A12690243134B1A6104E0114A12690E
:101130008243104B1A61704712494039086070476A
:101140000F49C86470470B49C87170470948406A25
:1011500040F0807007494862704701460020054A08
:1011600092680A400AB1012000E00020704701495E
:1011700088727047001002400000FFF8FFFFF6FE83
:10118000000042428004424200127A0000093D0001
:10119000140000202400002010B50446BE488442FC
:1011A00008D101218014FFF7ADFF0021A014FFF743
:1011B000A9FF16E0B948844208D101210014FFF7C5
:1011C000AEFF00212014FFF7AAFF0AE0B4488442D2
:1011D00007D10121C013FFF7A2FF0021E013FFF7A1
:1011E0009EFF10BD10B50022028802F441520B8808
:1011F0004C8823438C882343CC8823430C89234386
:101200004C8923438C892343CC8923431A4302808E
:10121000838B4FF2FF74234083830B8A038210BDBC
:101220002DE9F04F85B005460C464FF00009022726
:101230004FF000084FF0010B0026B246A88B4FF28A
:1012400040010840A88302202884B5F81C90A068BB
:10125000022801D100BF38E0A08810B94FF0010B7F
:1012600001E04FF0020B8D48854200D100E000BF45
:101270006846FFF7C0FEDDF800A0E088B0F5007F0B
:101280000AD14FEA1A2000EB80004000A168B0FBB1
:10129000F1F0401D86B20BE04FEA4B10BAFBF0F0C4
:1012A00000EB80004000A168B0FBF1F0401D86B269
:1012B0000A20B6FBF0F606F00108A6EB0800C0F322
:1012C0004F074FF6FF7000EA0828022F01DBFF2FBF
:1012D00002DD02274FF00008E08840EA08003843AA
:1012E0002884A088A189084361880843218808438D
:1012F00040F4006040EA0909A5F81C9005B0BDE87B
:10130000F08F0021018041808180C1800181418175
:101310008181C181072101827047002101804180C4
:101320008180C1800221816000218181704721B1CB
:10133000028842F04002028004E002884FF6BF7348
:101340001A400280704721B1828B42F4806282830E
:1013500004E0828B4FF6FF331A408283704730B52A
:10136000002400230C110125A540ABB21AB18588D9
:101370001D43858002E085889D43858030BD1AB17C
:1013800083880B43838002E083888B43838070478C
:10139000818170470146888970474FF6FF6291420C
:1013A00004D0028842F48072028004E002884FF682
:1013B000FF631A400280704721B1828842F0040224
:1013C000828004E082884FF6FB731A408280704767
:1013D00002884FF2FF731A40028002880A4302809B
:1013E0007047018841F480510180704721B1028823
:1013F00042F40052028004E002884DF6FF731A4066
:101400000280704702460020012901D0108B00E0C5
:10141000908A70470146088A7047B1F5804F04D121
:10142000028842F48042028004E002884BF6FF7397
:101430001A40028070470246002013890B400BB10E
:10144000012000E000207047CA4302817047F0B5D8
:101450000246002000240023002501F00F0701268A
:10146000BE40B4B20B1101269E40B3B2968806EA84
:1014700003051689264016B10DB1012000E00020B9
:10148000F0BD10B5002201F00F040123A3409AB271
:10149000D343038110BD00000030014000380040FC
:1014A000003C004010B50446FB48844209D10121AC
:1014B0008803FFF727FE00214FF48040FFF722FE4C
:1014C00032E0F648844209D101214804FFF727FEA3
:1014D00000214FF40030FFF722FE25E0F04884425F
:1014E00009D101218804FFF71AFE00214FF4802062
:1014F000FFF715FE18E0EB48844209D10121C8042A
:10150000FFF70DFE00214FF40020FFF708FE0BE06F
:10151000E548844208D101210805FFF700FE0021BB
:101520004FF48010FFF7FBFD10BD2DE9F04786B0AA
:1015300005460E460024A24600BFA1460027B089FA
:1015400000B100BF2F462C8A4CF6FF700440F08893
:1015500004432C82AC894EF6F3100440B0883189E4
:101560000843718908430443AC81AC8A4FF6FF40BD
:101570000440B0890443AC8201A8FFF73CFDC64893
:10158000874202D1DDF810A001E0DDF80CA0A889A7
:1015900000F4004040B10AEBCA0000EB0A103168C9
:1015A0004900B0FBF1F807E00AEBCA0000EB0A10B3
:1015B00031688900B0FBF1F86420B8FBF0F0040159
:1015C0002009642101FB1089A88900F4004040B182
:1015D000322000EBC900B0FBF1F000F0070004433B
:1015E00008E0322000EB09106421B0FBF1F000F0BC
:1015F0000F0004432C8106B0BDE8F0874FF416516C
:10160000016000218180C18001810C214181002184
:101610008181704710B502460020108A4FF2FF0307
:1016200018400B884C8823438C882343CC88234361
:101630001843108210BD0021018041808180C1804B
:10164000704721B1828942F40052828104E082898C
:101650004DF6FF731A4082817047F0B503460024AF
:1016600000260025002040F66A17B94200D100BFCD
:101670001846C1F3421401F01F06012707FA06F5C8
:10168000012C01D10C3004E0022C01D1103000E01B
:1016900014301AB107682F43076002E00768AF43B0
:1016A0000760F0BD1AB1838A0B43838202E0838A0C
:1016B0008B4383827047028A4FF6F0731A4002828E
:1016C000028A0A430282704782894FF2FF731A40EE
:1016D000828182890A438281704721B1828942F0E6
:1016E0000202828104E082894FF6FD731A408281F2
:1016F0007047028A4FF6DF731A400282028A0A4359
:101700000282704721B1028A42F48042028204E0E0
:10171000028A4BF6FF731A4002827047C1F3080237
:101720008280704701468888C0F30800704781892D
:1017300041F0010181817047028BD2B20283028B9A
:1017400042EA012202837047028B02F47F42028345
:10175000028B0A430283704721B1828A42F0200241
:10176000828204E0828A4FF6DF731A4082827047D9
:1017700021B1828A42F01002828204E0828A4FF60E
:10178000EF731A408282704721B1828A42F00802C8
:10179000828204E0828A4FF6F7731A408282704791
:1017A00021B1828942F40042828103E08289C2F33E
:1017B0000E028281704721B1828A42F400628282E5
:1017C00004E0828A4FF2FF731A4082827047828A55
:1017D0004FF6FB731A408282828A0A4382827047E4
:1017E00021B1828A42F00202828204E0828A4FF6AC
:1017F000FD731A408282704702460020B1F5007FD7
:1018000000D100BF13880B400BB1012000E0002085
:10181000704701F40072B2F5007F00D100BFCA43E7
:101820000280704770B50246002400230025002086
:1018300040F66A16B14200D100BFC1F3421501F073
:101840001F03012606FA03F3012D02D196893340C6
:1018500006E0022D02D1168A334001E0968A334019
:101860000C12012606FA04F41688344013B10CB1A8
:10187000012000E0002070BD10B50022002340F6DA
:101880006A14A14200D100BF0A1201249440A3B2FD
:10189000DC43048010BD00000038014000440040DB
:1018A00000480040004C00400050004000B587B0A8
:1018B00001210820FFF70CFC01214805FFF715FC6A
:1018C000C020ADF8180003208DF81A001C208DF8F8
:1018D0001B0006A99448FEF73DFF1F208DF8140059
:1018E00000208DF815008DF8160001208DF81700E6
:1018F00005A8FEF73CFD20208DF8140005A8FEF792
:1019000036FD0020ADF808004BF6FF70ADF80A0078
:101910000C20ADF80C004FF48060ADF80E00000113
:10192000ADF810008148019001A98148FFF779F8CE
:1019300001217F48FFF7FFF801224FF4C0617C4886
:10194000FFF758F901217A48FFF7E9F807B000BD21
:1019500000B58BB001210846FFF7ADFB7548FEF7D7
:101960006FFD734810300090734801900020029082
:10197000C82003900020049080200590002006904D
:10198000079008904FF48050099000200A90694613
:101990006848FEF7F7FD01216648FEF71EFE0BB012
:1019A00000BD05E0624814300088614818300088A6
:1019B0005F481430008800F002000228F2D008E0EE
:1019C0005B48143000885A48008840F001005849AC
:1019D000088057481430008800F010001028EFD01D
:1019E000704710B55248FFF7B4F90446B4F1021F2E
:1019F00003D10120514908702AE0514884420BD19B
:101A00004E480078012803D102204C4908701FE09D
:101A100003204A4908701BE04A48844218D0801CC1
:101A2000844215D0102C13D1FFF7BBFF002043498F
:101A3000087000213F48FEF7D0FD002042490860B1
:101A4000C8213C48FEF7DEFD01213A48FEF7C5FDFE
:101A500010BD10B53D493648FFF7ABF918B13B4909
:101A60003348FFF7C1F910BD70B504460D4600BFFD
:101A70004FF400312E48FFF779F90028F8D1012101
:101A80002B48FFF770F800BF31492948FFF74CF9A0
:101A90000028F9D0002221462548FFF7BAF800BFF8
:101AA0002C492348FFF740F90028F9D0294620485F
:101AB000FFF7A9F800BF2749891C1D48FFF734F933
:101AC0000028F8D001211A48FFF759F870BD10B569
:101AD000044600BF4FF400311548FFF747F90028CE
:101AE000F8D101211248FFF73EF800BF184910480D
:101AF000FFF71AF90028F9D0002221460C48FFF719
:101B000088F800BF13490A48FFF70EF90028F9D0FA
:101B100000210748FFF73FF801210548FFF72FF89C
:101B20000348FFF772F810BD000C0140A0860100C9
:101B30000054004080000240340000202C000020AF
:101B400040000200820006008C8121420004000156
:101B5000010003008200070000B587B001210820C2
:101B6000FFF7B6FA01210803FFF7B2FA4020ADF8FB
:101B7000180004208DF81B0006A93C48FEF7EAFD7A
:101B80002020ADF8180003208DF81A0018208DF8D9
:101B90001B0006A93548FEF7DDFD1020ADF8180042
:101BA00003208DF81A0010208DF81B0006A92F487D
:101BB000FEF7D0FD23208DF8140000208DF81500CD
:101BC0008DF8160001208DF8170005A8FEF7CFFB51
:101BD00023208DF8140005A8FEF7C9FB4FF48060A0
:101BE000ADF800004FF48270ADF802004FF40060D1
:101BF000ADF804000220ADF806000020ADF80800A2
:101C00004FF40070ADF80A000820ADF80C00002079
:101C1000ADF80E000720ADF8100069461448FFF734
:101C2000E1FA01211248FFF782FB07B000BD10B5B1
:101C300056210F48FFF70BFC18B156210C48FFF74F
:101C400020FC10BD10B510210848FEF732FE00BF81
:101C500001210748FFF7EFFB0028F9D010210348C6
:101C6000FEF725FE0248FFF795FB10BD0008014076
:101C70000030014000B585B0012144F20400FFF7B7
:101C800027FA4FF40070ADF8100018208DF81300FB
:101C900003208DF8120004A92148FEF75BFD4FF4E4
:101CA0008060ADF8100004208DF8130004A91C48D2
:101CB000FEF750FD4FF4E13000900020ADF8040035
:101CC000ADF80600ADF80800ADF80C000C20ADF83A
:101CD0000A0069461348FFF728FC01211148FFF765
:101CE000B0FC05B000BD70B504460D46E1B20D482C
:101CF000FFF714FD00BF40210A48FFF77DFD0028D3
:101D0000F9D0204670BD10B5044600BF202105481B
:101D1000FFF772FD0028F9D00248FFF703FD10BD60
:101D20000008014000380140064C074D06E0E0681D
:101D300040F0010394E8070098471034AC42F6D312
:101D4000FEF7FAF9BC1D0008DC1D0008014A024933
:101D500000F013B8E71C00083000002002E008C8BB
:101D6000121F08C1002AFAD170477047002001E015
:101D700001C1121F002AFBD170472DE9F041164620
:101D80000F460446002503E03946B047641C6D1C2D
:101D900020780028F8D12846BDE8F081FFF76AFFD7
:101DA00002A0FFF7D3FF00BFFEE7000068656C6C80
:101DB0006F2C776F726C642100000000DC1D00083E
:101DC00000000020340000005C1D0008101E000808
:101DD00034000020CC0400006C1D000800A24A045E
:101DE00000000000000000000102030406070809CB
:101DF00000000000010203040102030406070809B1
:101E000002040608000000000000000000000000BE
:0400000508000131BD
:00000001FF
